S00E0000424D453638302E73726563A4
S113000070C000008EC000008CC000008AC00000D8
S113001088C0000086C0000084C0000082C00000C8
S113002080C000007EC000007CC000007AC00000D8
S113003078C0000076C0000074C0000072C00000E8
S113004070C000006EC000006CC000006AC00000F8
S113005068C0000066C0000064C0000062C0000008
S113006060C000005EC000005CC000005AC0000018
S113007058C0000056C0000054C0000052C0000028
S113008050C000004EC000004CC000004AC0000038
S113009048C0000046C0000044C0000042C0000048
S11300A040C000003EC000003CC000003AC0000058
S11300B038C0000036C0000034C0000032C0000068
S11300C030C000002EC000002CC0000033023902F2
S11300D03F0245024B02510257025D02630269026C
S11300E06E0211241FBECFEFD1E2DEBFCDBF00E010
S11300F00CBF12E0A0E0B2E0E6E0F6E200E00BBFE5
S113010002C007900D92A032B107D9F722E0A0E215
S1130110B2E001C01D92A532B207E1F7A1D20C945E
S113012001136ECFCF93DF931F921F92CDB7DEB72B
S11301309A83898384E690E024E630E0F901208103
S11301402170FC01208385EC90E029813A81232FE2
S11301503327FC01208384EC90E02981FC01208377
S113016080EC90E022E0FC01208382EC90E02EE021
S1130170FC01208381EC90E028E9FC01208300004D
S11301800F900F90DF91CF910895CF93DF931F923B
S1130190CDB7DEB78983000080EC90E0FC0180815C
S11301A0882F90E080729927892BB1F386EC90E038
S11301B02981FC01208300000F90DF91CF910895E5
S11301C0CF93DF93CDB7DEB78CEB90E024EAFC014C
S11301D0208300008CEB90E0FC0180818823D4F71D
S11301E089EB90E0FC018081882F90E0887F99273B
S11301F0089719F083E090E002C080E090E0DF917E
S1130200CF910895CF93DF931F92CDB7DEB7898343
S11302108BEB90E02981220FFC0120838CEB90E092
S113022024E8FC01208300008CEB90E0FC01808139
S11302308823D4F789EB90E0FC018081882F90E03B
S1130240887F9927489781F089EB90E0FC018081B1
S1130250882F90E0887F9927809719F484E090E0B4
S113026005C081E090E002C080E090E00F90DF9153
S1130270CF910895CF93DF931F92CDB7DEB78983D3
S11302808BEB90E02981222F30E0220F331F216075
S1130290FC0120838CEB90E024E8FC012083000027
S11302A08CEB90E0FC0180818823D4F789EB90E00B
S11302B0FC018081882F90E0887F99278034910504
S11302C089F089EB90E0FC018081882F90E0887FA1
S11302D099278834910519F484E090E005C081E001
S11302E090E002C080E090E00F90DF91CF910895FC
S11302F0CF93DF931F92CDB7DEB789838BEB90E06A
S11303002981FC0120838CEB90E024E8FC0120830C
S113031000008CEB90E0FC0180818823D4F789EB0A
S113032090E0FC018081882F90E0887F992788974E
S113033081F089EB90E0FC018081882F90E0887F38
S11303409927C09719F484E090E005C081E090E01B
S113035002C080E090E00F90DF91CF910895CF9399
S1130360DF931F921F92CDB7DEB78A838A818823D9
S1130370E9F08CEB90E024ECFC01208300008CEB92
S113038090E0FC0180818823D4F789EB90E0FC01A4
S11303908081882F90E0887F99278035910519F115
S11303A089EB90E0FC018081887F23C08CEB90E096
S11303B024E8FC01208300008CEB90E0FC018081A8
S11303C08823D4F789EB90E0FC018081882F90E0AA
S11303D0887F99278835910531F089EB90E0FC01FD
S11303E08081887F06C08BEB90E0FC01808189834B
S11303F089810F900F90DF91CF910895CF93DF9370
S1130400CDB7DEB78CEB90E024E9FC01208380E0DB
S113041090E0DF91CF910895CF93DF931F92CDB7F2
S1130420DEB7898384E690E024E630E0F901208198
S11304302F77FC0120838981882F90E0092E000CFE
S1130440AA0BBB0B40E050E02AE030E0841B950B84
S11304502817390708F448C0FC018827EA59FF4FD8
S11304608F4F0C94F91288EB90E020E2FC0120837A
S11304703EC088EB90E028E4FC01208338C088EB80
S113048090E02CE5FC01208332C088EB90E028E06A
S1130490FC0120832CC088EB90E028E1FC01208340
S11304A026C088EB90E020E2FC01208320C088EB8A
S11304B090E022E0FC0120831AC088EB90E02CE05D
S11304C0FC01208314C088EB90E021E1FC0120832F
S11304D00EC088EB90E0FC01108209C088EB90E02C
S11304E022E0FC01208303C082E090E002C080E0AF
S11304F090E00F90DF91CF910895CF93DF93CDB724
S1130500DEB729970FB6F894DEBF0FBECDBF8D833B
S11305107F836E834887298753DE9C838B838B81FB
S11305209C81892B19F08B819C8133C08D816ADE7B
S11305309C838B838B819C81892B19F08B819C817B
S113054028C01A82198217C089819A812E813F811D
S1130550820F931FFC018081CBDE9C838B838B8174
S11305609C81892B19F08B819C8113C089819A818C
S113057001969A8389838885282F30E089819A811E
S1130580821793070CF38985882309F437DF80E009
S113059090E029960FB6F894DEBF0FBECDBFDF9171
S11305A0CF9108950F931F93CF93DF93CDB7DEB709
S11305B028970FB6F894DEBF0FBECDBF8D837F831F
S11305C06E834887FDDD9C838B838B819C81892B83
S11305D019F08B819C8139C08D814CDE9C838B8387
S11305E08B819C81892B19F08B819C812EC01A826E
S11305F0198210C089819A812E813F818901080F57
S1130600191F81E0ACDEF801808389819A8101960B
S11306109A8389838885882F90E09C012150310931
S113062089819A81821793072CF38885882F90E01B
S113063001972E813F818901080F191F80E08FDE09
S1130640F8018083DBDE80E090E028960FB6F89412
S1130650DEBF0FBECDBFDF91CF911F910F910895E3
S1130660CF92DF92EF92FF92CF93DF93CDB7DEB7B5
S1130670C555D1090FB6F894DEBF0FBECDBF1D8A94
S1130680E3D48D8B8CE0E0E0F2E0DE01D6960190BD
S11306900D928A95E1F7CE018E5B9F4F2AE0ECE044
S11306A0F2E0DC0101900D922A95E1F7CE01845B22
S11306B09F4F2AE0E6E1F2E0DC0101900D922A95D9
S11306C0E1F73FD564D5DC01CB0189839A83AB8301
S11306D0BC8338D7DC01CB018E8B9F8BA88FB98F5D
S11306E00E94850EDC01CB018A8F9B8FAC8FBD8F5E
S11306F01E821D820FC09E012A5C3F4F8D819E8108
S1130700820F931FFC01808140DD8D819E810196C3
S11307109E838D838D819E810C976CF320E030E065
S1130720A90169817A818B819C810E94431188236C
S11307305CF48DE22ADD89819A81AB81BC81B05859
S113074089839A83AB83BC8320E030E040E251E4A8
S113075069817A818B819C810E944711DC01CB01E4
S1130760BC01CD010E94B411DC01CB018CA78CA586
S1130770882F90E0880F991F9C01220F331F220FAE
S1130780331F820F931F092E000CAA0BBB0BBC0155
S1130790CD010E94E211DC01CB019C01AD01698114
S11307A07A818B819C810E94DE10DC01CB01BC012B
S11307B0CD010E94B411DC01CB018DA78CA5882F3B
S11307C090E0880F991F9C01220F331F220F331FC3
S11307D0820F931F092E000CAA0BBB0BBC01CD0189
S11307E00E94E211DC01CB019C01AD0169817A8197
S11307F08B819C810E94DE10DC01CB016C017D01A8
S11308008DA5882F90E0092E000CAA0BBB0BBC0110
S1130810CD010E94E211DC01CB019C01AD01C701B5
S1130820B6010E94DE10DC01CB0120E030E040E2A2
S113083051E4BC01CD010E949612DC01CB01BC0144
S1130840CD010E94B411DC01CB018EA78CA5882FA9
S113085090E0880F991F9C01220F331F220F331F32
S1130860820F931F092E000CAA0BBB0BBC01CD01F8
S11308700E94E211DC01CB019C01AD0169817A8106
S11308808B819C810E94DE10DC01CB016C017D0117
S11308908DA5882F90E0092E000CAA0BBB0BBC0180
S11308A0CD010E94E211DC01CB019C01AD01C70125
S11308B0B6010E94DE10DC01CB016C017D018EA526
S11308C0882F90E0A0E0B0E0BC01CD010E94E011CF
S11308D0DC01CB0120E030E040E251E4BC01CD0179
S11308E00E944711DC01CB019C01AD01C701B60197
S11308F00E94DE10DC01CB0120E030E048EC52E441
S1130900BC01CD010E949612DC01CB01BC01CD01DA
S11309100E94B411DC01CB018FA78CA5882F90E035
S1130920880F991F9C01220F331F220F331F820F40
S1130930931F092E000CAA0BBB0BBC01CD010E9416
S1130940E211DC01CB019C01AD0169817A818B81CB
S11309509C810E94DE10DC01CB016C017D018DA520
S1130960882F90E0092E000CAA0BBB0BBC01CD0113
S11309700E94E211DC01CB019C01AD01C701B6016B
S11309800E94DE10DC01CB016C017D018EA5882F55
S113099090E0A0E0B0E0BC01CD010E94E011DC01D8
S11309A0CB0120E030E040E251E4BC01CD010E94E3
S11309B04711DC01CB019C01AD01C701B6010E94C6
S11309C0DE10DC01CB016C017D018FA5882F90E046
S11309D0A0E0B0E0BC01CD010E94E011DC01CB013C
S11309E020E030E048EC52E4BC01CD010E94471104
S11309F0DC01CB019C01AD01C701B6010E94DE10F0
S1130A00DC01CB0120E030E04AE754E4BC01CD0135
S1130A100E949612DC01CB01BC01CD010E94B411ED
S1130A20DC01CB0188AB18861F8210C09E01245DB7
S1130A303F4F8F819885820F931FFC018081805DD9
S1130A40A4DB8F819885019698878F838F81988501
S1130A50029764F38EE299DB1A86198611C08985A0
S1130A609A8502969E01245D3F4F820F931FFC01DD
S1130A708081805D8ADB89859A8501969A8789873A
S1130A8089859A8503975CF38CE27FDB80E27DDBCA
S1130A9020E030E048EC52E46E897F89888D998D9E
S1130AA00E944711DC01CB018E8B9F8BA88FB98FDD
S1130AB020E030E04AE754E46E897F89888D998D7F
S1130AC00E944711DC01CB01BC01CD010E94B4118D
S1130AD0DC01CB018CA78CA5482F50E028EE33E035
S1130AE0429FC001439F900D529F900D1124092EE7
S1130AF0000CAA0BBB0BBC01CD010E94E211DC016E
S1130B00CB019C01AD016E897F89888D998D0E94EE
S1130B10DE10DC01CB0120E030E048EC52E4BC0103
S1130B20CD010E944711DC01CB01BC01CD010E9423
S1130B30B411DC01CB018DA78CA5482F50E028EE21
S1130B4033E0429FC001439F900D529F900D1124AA
S1130B50092E000CAA0BBB0BBC01CD010E94E211B3
S1130B60DC01CB019C01AD016E897F89888D998D53
S1130B700E94DE10DC01CB016C017D018DA5282FC4
S1130B8030E044E6429FC001439F900D1124092E9A
S1130B90000CAA0BBB0BBC01CD010E94E211DC01CD
S1130BA0CB019C01AD01C701B6010E94DE10DC013E
S1130BB0CB0120E030E040E251E4BC01CD010E94D1
S1130BC04711DC01CB01BC01CD010E94B411DC0151
S1130BD0CB018EA78CA5482F50E028EE33E0429F2E
S1130BE0C001439F900D529F900D1124092E000CBB
S1130BF0AA0BBB0BBC01CD010E94E211DC01CB01AD
S1130C009C01AD016E897F89888D998D0E94DE10CB
S1130C10DC01CB016C017D018DA5282F30E044E679
S1130C20429FC001439F900D1124092E000CAA0B72
S1130C30BB0BBC01CD010E94E211DC01CB019C0184
S1130C40AD01C701B6010E94DE10DC01CB016C01CD
S1130C507D018EA5882F90E0880F991F9C01220F9B
S1130C60331F220F331F820F931F092E000CAA0B70
S1130C70BB0BBC01CD010E94E211DC01CB019C0144
S1130C80AD01C701B6010E94DE10DC01CB01BC013D
S1130C90CD010E94B411DC01CB018FA71C861B86F9
S1130CA00FC09E012E5B3F4F8B859C85820F931F47
S1130CB0FC0180816ADA8B859C8501969C878B87F1
S1130CC08B859C850A976CF31E861D8610C09E0139
S1130CD0245D3F4F8D859E85820F931FFC0180818B
S1130CE0805D53DA8D859E8501969E878D878D85DF
S1130CF09E85049764F38CE248DA80E246DA20E0C9
S1130D0030E040E251E46A8D7B8D8C8D9D8D0E9494
S1130D104711DC01CB01BC01CD010E94B411DC01FF
S1130D20CB018CA78CA5882F90E0880F991F9C017C
S1130D30220F331F220F331F820F931F092E000C23
S1130D40AA0BBB0BBC01CD010E94E211DC01CB015B
S1130D509C01AD016A8D7B8D8C8D9D8D0E94DE1072
S1130D60DC01CB01BC01CD010E94B411DC01CB013B
S1130D708DA78CA5882F90E0880F991F9C01220FC6
S1130D80331F220F331F820F931F092E000CAA0B4F
S1130D90BB0BBC01CD010E94E211DC01CB019C0123
S1130DA0AD016A8D7B8D8C8D9D8D0E94DE10DC01E2
S1130DB0CB016C017D018DA5882F90E0092E000CDC
S1130DC0AA0BBB0BBC01CD010E94E211DC01CB01DB
S1130DD09C01AD01C701B6010E94DE10DC01CB010C
S1130DE020E030E040E251E4BC01CD010E949612C3
S1130DF0DC01CB01BC01CD010E94B411DC01CB01AB
S1130E008EA78CA5882F90E0880F991F9C01220F34
S1130E10331F220F331F820F931F092E000CAA0BBE
S1130E20BB0BBC01CD010E94E211DC01CB019C0192
S1130E30AD016A8D7B8D8C8D9D8D0E94DE10DC0151
S1130E40CB016C017D018DA5882F90E0092E000C4B
S1130E50AA0BBB0BBC01CD010E94E211DC01CB014A
S1130E609C01AD01C701B6010E94DE10DC01CB017B
S1130E706C017D018EA5882F90E0A0E0B0E0BC015C
S1130E80CD010E94E011DC01CB0120E030E040E222
S1130E9051E4BC01CD010E944711DC01CB019C014E
S1130EA0AD01C701B6010E94DE10DC01CB0120E0D8
S1130EB030E048EC52E4BC01CD010E949612DC0102
S1130EC0CB01BC01CD010E94B411DC01CB018FA781
S1130ED0188A1F860FC09E01245B3F4F8F85988917
S1130EE0820F931FFC01808150D98F8598890196C8
S1130EF0988B8F878F8598890A976CF31A8A198A39
S1130F0010C09E01245D3F4F89899A89820F931FE7
S1130F10FC018081805D39D989899A8901969A8BEF
S1130F20898B89899A89029764F38EE22ED91C8A67
S1130F301B8A11C08B899C8902969E01245D3F4FB8
S1130F40820F931FFC018081805D1FD98B899C894E
S1130F5001969C8B8B8B8B899C8902975CF38AE02E
S1130F6014D980E090E0AAEFB3E48E8F9F8FA8A3FA
S1130F70B9A320E030E04AEF54E46E8D7F8D88A160
S1130F8099A10E949612DC01CB018AA39BA3ACA376
S1130F90BDA320E030E040E85FE36AA17BA18CA11F
S1130FA09DA10E94431188232CF481E090E09FA32B
S1130FB08EA33FC020E03FEF4FE757E46AA17BA137
S1130FC08CA19DA10E94921218164CF520E030E0ED
S1130FD040E251E46E8D7F8D88A199A10E94961202
S1130FE0DC01CB01BC01CD010E94B411DC01CB01B9
S1130FF09FA38EA30FC088EC90E099A788A788A52B
S113100099A50197F1F799A788A78EA19FA10197A8
S11310109FA38EA38EA19FA1892B69F714C06AA1F7
S11310207BA18CA19DA10E94B411DC01CB019FA3E3
S11310308EA38EA19FA19BA78AA78AA59BA5019792
S1131040F1F79BA78AA73DCBCF93DF931F92CDB730
S1131050DEB7198287E690E065D880E0DDD9898320
S11310600DD0898381E291D88981882311F081E0B0
S113107001C080E00F90DF91CF910895CF93DF936B
S113108000D01F92CDB7DEB780ED8B831C82CE01DA
S1131090039620E041E0BC0186E72FDACE010496F6
S11310A041E0BC0186E77EDA8C81882311F481E07B
S11310B041C080EE898386EB8A8320E042E0CE0142
S11310C00196BC0186E719DA82E7898381E08A8385
S11310D020E042E0CE010196BC0186E70EDA85E706
S11310E089831A8220E042E0CE010196BC0186E7A2
S11310F004DA84E7898385E28A8320E042E0CE0132
S11311000196BC0186E7F9D980E7898388E08A8360
S113111020E042E0CE010196BC0186E7EED981E7EA
S113112089831A8220E042E0CE010196BC0186E761
S1131130E4D980E00F900F900F900F90DF91CF9142
S11311400895CF93DF9300D01F92CDB7DEB784E725
S11311508B8385E28C83CE01039620E042E0BC01C0
S113116086E7CBD91A82198206C0000089819A8148
S113117001969A83898389819A81C297B4F3000086
S11311800F900F900F900F90DF91CF910895CF9310
S1131190DF9300D01F92CDB7DEB721D0DC01CB01A5
S11311A089839A83AB83BC8369817A818B819C8197
S11311B00E94E211DC01CB0120E030E040EA55E47A
S11311C0BC01CD010E944711DC01CB01BC01CD0162
S11311D00F900F900F900F90DF91CF9108958F9201
S11311E09F92AF92BF92CF92DF92EF92FF92CF93F2
S11311F0DF93CDB7DEB766970FB6F894DEBF0FBEA8
S1131200CDBF1E8A19821A821B821C821E821D82F5
S113121018861F8219861A861B861C861D861E86C2
S11312201F86188A198A1A8A1B8A1C8A1D8A82E2D6
S11312308E8BCE01469620E041E0BC0186E75DD965
S113124043E060E272E086E7ADD980912002882F06
S113125090E0A0E0B0E0072E7CE0880F991FAA1F61
S1131260BB1F7A95D1F7702D9C01AD012227307FE9
S11312704F70552780912102882F90E08295929596
S1131280907F9827807F9827092E000CAA0BBB0B10
S1131290807F9F70AA27BB27282B392B4A2B5B2BD7
S11312A08091220282958F70882F90E0A0E0B0E0B8
S11312B0822B932BA42BB52B89839A83AB83BC837A
S11312C089EE8E8BCE01469620E041E0BC0186E794
S11312D014D942E060E272E086E764D98091210289
S11312E0882F90E0982F88279C0180912002882FD6
S11312F090E0822B932B9E838D838AE88E8BCE0184
S1131300469620E041E0BC0186E7F7D842E060E27F
S113131072E086E747D980912102882F90E0982FC8
S113132088279C0180912002882F90E0822B932BA8
S113133098878F838CE88E8BCE01469620E041E01F
S1131340BC0186E7DAD842E060E272E086E72AD997
S113135080912002898769817A818B819C810E9496
S1131360E011DC01CB0120E030E040E856E4BC01B0
S1131370CD018DD7DC01CB016C017D018D819E8176
S1131380CC01A0E0B0E0BC01CD010E94E011DC0181
S1131390CB0120E030E040E854E4BC01CD0177D734
S11313A0DC01CB019C01AD01C701B60107D7DC010B
S11313B0CB016C017D018F819885092E000CAA0B4D
S11313C0BB0BBC01CD01FED7DC01CB019C01AD01FF
S11313D0C701B6010E949612DC01CB018A879B8764
S11313E0AC87BD8769817A818B819C81E9D7DC01D7
S11313F0CB0120E030E040E058E4BC01CD0147D708
S1131400DC01CB016C017D018D819E81CC01A0E0CA
S1131410B0E0BC01CD01D4D7DC01CB0120E030E049
S113142040E056E4BC01CD0132D7DC01CB019C0184
S1131430AD01C701B601C2D6DC01CB016C017D014F
S113144069817A818B819C81BBD7DC01CB0120E04F
S113145030E040E058E4BC01CD0119D7DC01CB01F8
S11314604C015D018D819E81CC01A0E0B0E0BC0106
S1131470CD01A6D7DC01CB0120E030E040E056E40A
S1131480BC01CD0104D7DC01CB019C01AD01C50138
S1131490B40194D6DC01CB019C01AD01C701B601B6
S11314A00E949612DC01CB016C017D018985082E16
S11314B0000C990BAA0BBB0BBC01CD0183D7DC013B
S11314C0CB0120E030E040E851E4BC01CD010E94B2
S11314D09612DC01CB019C01AD01C701B6010E944B
S11314E09612DC01CB018E879F87A88BB98B2E8542
S11314F03F85488959896A857B858C859D855FD61A
S1131500DC01CB01BC01CD012AD7DC01CB018A8BE4
S11315109B8BAC8BBD8B8A899B89AC89BD89BC01B3
S1131520CD0166960FB6F894DEBF0FBECDBFDF9136
S1131530CF91FF90EF90DF90CF90BF90AF909F90AE
S11315408F900895CF92DF92EF92FF92CF93DF9323
S1131550CDB7DEB7A9970FB6F894DEBF0FBECDBFE7
S11315603EDEDC01CB0189839A83AB83BC8319A65D
S11315701D821E821F82188619861A861B861C8667
S11315801D861E861F86188A198A1A8A1B8A1C8A37
S11315901D8A1E8A1F8A188E1A8E198E1C8E1B8E07
S11315A01D8E1F8E1E8E19A218A21AA21BA21DA286
S11315B01CA21FA21EA218A68FE189A7CE0189969C
S11315C020E041E0BC0186E70E947D0241E060E248
S11315D072E086E70E94D20280912002882F90E078
S11315E0A0E0B0E0072E7CE0880F991FAA1FBB1F64
S11315F07A95D1F7702D8827907FAF70BB278D8B9C
S11316009E8BAF8BB88F80E289A7CE01899620E0AC
S113161041E0BC0186E70E947D0242E060E272E0A4
S113162086E70E94D20280912002882F90E0829562
S11316309295907F9827807F9827092E000CAA0BFB
S1131640BB0B9C01AD01207F3F70442755278D893A
S11316509E89AF89B88D282B392B4A2B5B2B80911F
S1131660210282958F70882F90E0A0E0B0E0822B59
S1131670932BA42BB52B8D8B9E8BAF8BB88F8EE8C1
S113168089A7CE01899620E041E0BC0186E70E944B
S11316907D0242E060E272E086E70E94D20280911D
S11316A02102882F90E0382F222780912002882F52
S11316B090E0822B932B9A8F898F80E989A7CE01A2
S11316C0899620E041E0BC0186E70E947D0242E069
S11316D060E272E086E70E94D20280912102882FA4
S11316E090E0382F222780912002882F90E0822BCF
S11316F0932B9C8F8B8F82E989A7CE01899620E05A
S113170041E0BC0186E70E947D0241E060E272E0B4
S113171086E70E94D202809120028D8F84E989A7F6
S1131720CE01899620E041E0BC0186E70E947D025B
S113173042E060E272E086E70E94D20280912102D8
S1131740882F90E0382F222780912002882F90E064
S1131750822B932B9F8F8E8F86E989A7CE01899642
S113176020E041E0BC0186E70E947D0242E060E2A5
S113177072E086E70E94D20280912102882F90E0D5
S1131780382F222780912002882F90E0822B932BE0
S113179099A388A389E989A7CE01899620E041E02D
S11317A0BC0186E70E947D0241E060E272E086E7C8
S11317B00E94D202809120028AA388E989A7CE01DF
S11317C0899620E041E0BC0186E70E947D0242E068
S11317D060E272E086E70E94D202809120028BA32D
S11317E08CE989A7CE01899620E041E0BC0186E717
S11317F00E947D0242E060E272E086E70E94D2022B
S113180080912102882F90E0382F22278091200296
S1131810882F90E0822B932B9DA38CA38EE989A71C
S1131820CE01899620E041E0BC0186E70E947D025A
S113183042E060E272E086E70E94D20280912102D7
S1131840882F90E0382F222780912002882F90E063
S1131850822B932B9FA38EA380EA89A7CE0189961E
S113186020E041E0BC0186E70E947D0242E060E2A4
S113187072E086E70E94D2028091200288A76981E3
S11318807A818B819C819ED5DC01CB0120E030E004
S113189040E050E4BC01CD01FAD4DC01CB0120E0EE
S11318A030E04AE757E4BC01CD0188D4DC01CB0128
S11318B08D839E83AF83B8872D813E814F81588568
S11318C06D817E818F81988531D6DC01CB016C01DD
S11318D07D018AA1082E000C990BAA0BBB0BBC013D
S11318E0CD0170D5DC01CB0120E030E040E058E4CC
S11318F0BC01CD01CCD4DC01CB019C01AD01C701FD
S1131900B60114D6DC01CB0189879A87AB87BC87E3
S113191088A199A1092E000CAA0BBB0BBC01CD0117
S113192051D5DC01CB012D813E814F815885BC010D
S1131930CD01FCD5DC01CB019C01AD01BC01CD0185
S11319403ED4DC01CB019C01AD0169857A858B8590
S11319509C8535D4DC01CB0189879A87AB87BC870A
S113196020E030E040E850E469857A858B859C85E9
S11319708ED4DC01CB016C017D018E8D9F8D092EEF
S1131980000CAA0BBB0BBC01CD011CD5DC01CB01A7
S113199020E030E040E857E4BC01CD01C7D5DC01CC
S11319A0CB019C01AD01C701B60109D4DC01CB0117
S11319B089879A87AB87BC878D8D082E000C990B7D
S11319C0AA0BBB0BBC01CD01FDD4DC01CB012D81E5
S11319D03E814F815885BC01CD01A8D5DC01CB01E6
S11319E02D813E814F815885BC01CD019FD5DC01FD
S11319F0CB0120E030E040E856E4BC01CD0147D4FF
S1131A00DC01CB016C017D018B8D9C8D092E000CBA
S1131A10AA0BBB0BBC01CD01D5D4DC01CB012D81BC
S1131A203E814F815885BC01CD0180D5DC01CB01BD
S1131A309C01AD01C701B601C2D3DC01CB0120E09A
S1131A4030E040E059E4BC01CD0121D4DC01CB01FC
S1131A508D839E83AF83B88720E030E040E057E475
S1131A606D817E818F81988512D4DC01CB0120E0C9
S1131A7030E040E85FE3BC01CD01A1D3DC01CB0140
S1131A806C017D01898D9A8DCC01A0E0B0E0BC0190
S1131A90CD0196D4DC01CB019C01AD01C701B60197
S1131AA045D5DC01CB018D839E83AF83B8876D89D7
S1131AB07E898F89988D84D4DC01CB019C01AD0192
S1131AC060E070E080E899E479D3DC01CB01898B94
S1131AD09A8BAB8BBC8B20E030E040E855E4698501
S1131AE07A858B859C85D3D3DC01CB019C01AD0128
S1131AF069897A898B899C8961D3DC01CB0120E0D7
S1131B0030E543EC55E4BC01CD0110D5DC01CB013B
S1131B102D813E814F815885BC01CD01B8D3DC01B4
S1131B20CB01898B9A8BAB8BBC8B8EA19FA1092E89
S1131B30000CAA0BBB0BBC01CD0144D4DC01CB01CE
S1131B4029893A894B895C89BC01CD01EFD4DC0138
S1131B50CB0120E030E040E05FE4BC01CD0197D34D
S1131B60DC01CB018D839E83AF83B8878CA19DA1BB
S1131B70092E000CAA0BBB0BBC01CD0123D4DC0144
S1131B80CB0120E030E040E057E4BC01CD017FD33D
S1131B90DC01CB0129893A894B895C89BC01CD01DF
S1131BA0C5D4DC01CB0189879A87AB87BC8720E049
S1131BB030E040E853E469897A898B899C8967D34A
S1131BC0DC01CB016C017D0120E030E040E853E40E
S1131BD069897A898B899C895AD3DC01CB019C0160
S1131BE0AD01C701B601A2D4DC01CB016C017D01BA
S1131BF020E030E040E853E469897A898B899C8944
S1131C0046D3DC01CB019C01AD01C701B6018ED4E2
S1131C10DC01CB016C017D0188A5082E000C990B19
S1131C20AA0BBB0BBC01CD01CDD3DC01CB0120E061
S1131C3030E040E058E4BC01CD0129D3DC01CB0104
S1131C409C01AD01C701B60171D4DC01CB018D87C4
S1131C509E87AF87B88B29853A854B855C856D81D6
S1131C607E818F819885ABD2DC01CB012D853E85A9
S1131C704F855889BC01CD01A2D2DC01CB016C0196
S1131C807D018BA1082E000C990BAA0BBB0BBC0188
S1131C90CD0198D3DC01CB0120E030E040E053E4F7
S1131CA0BC01CD0143D4DC01CB019C01AD01C701D2
S1131CB0B60185D2DC01CB0120E030E040E851E4FC
S1131CC0BC01CD01E4D2DC01CB019C01AD016989E9
S1131CD07A898B899C8973D2DC01CB01898B9A8B9D
S1131CE0AB8BBC8B89899A89AB89BC89BC01CD013A
S1131CF0A9960FB6F894DEBF0FBECDBFDF91CF918A
S1131D00FF90EF90DF90CF9008958F929F92AF92C3
S1131D10BF92CF92DF92EF92FF92CF93DF93CDB732
S1131D20DEB7AE970FB6F894DEBF0FBECDBF2FDA85
S1131D30DC01CB0189839A83AB83BC831EA61D82FD
S1131D401E821F82188619861A861B861C861D868B
S1131D501E861F86188A198A1A8A1B8A1C8A1D8A5B
S1131D601E8A1F8A188E198E1A8E1B8E1C8E1D8E2B
S1131D701E8E1F8E18A219A21AA21BA21CA21EA29A
S1131D801DA218A61FA219A61AA61BA61CA61DA64C
S1131D9085E28EA7CE018E9620E041E0BC0186E765
S1131DA00E947D0242E060E272E086E70E94D20275
S1131DB080912002882F90E0982F88279C018091A1
S1131DC02102882F90E0822B932BCC01A0E0B0E07D
S1131DD089A39AA3ABA3BCA382EE8EA7CE018E9651
S1131DE020E041E0BC0186E70E947D0242E060E21F
S1131DF072E086E70E94D20280912102882F90E04F
S1131E0082959295907F9827807F98279C01207FC8
S1131E103F7080912002882F90E08F709927822B49
S1131E20932B9EA38DA381EE8EA7CE018E9620E0E8
S1131E3041E0BC0186E70E947D0242E060E272E07C
S1131E4086E70E94D20280912002882F90E082953A
S1131E509295907F9827807F98279C01207F3F70E0
S1131E608091210282958F70882F90E08F7099273E
S1131E70822B932B98A78FA384EE8EA7CE018E96E8
S1131E8020E041E0BC0186E70E947D0241E060E27F
S1131E9072E086E70E94D2028091200289A785EE33
S1131EA08EA7CE018E9620E041E0BC0186E70E9419
S1131EB07D0241E060E272E086E70E94D2028091F6
S1131EC020028AA786EE8EA7CE018E9620E041E0FE
S1131ED0BC0186E70E947D0241E060E272E086E791
S1131EE00E94D202809120028BA787EE8EA7CE019A
S1131EF08E9620E041E0BC0186E70E947D0241E02D
S1131F0060E272E086E70E94D202809120028CA7F0
S1131F1084EE8EA7CE018E9620E041E0BC0186E7D8
S1131F200E947D0241E060E272E086E70E94D202F4
S1131F30809120028DA769A17AA18BA19CA140D296
S1131F406B017C018DA19EA1CC01A0E0B0E0BC019D
S1131F50CD0136D2DC01CB0120E030E040E851E491
S1131F60BC01CD01E3D2DC01CB014C015D0189A5AB
S1131F70082E000C990BAA0BBB0BBC01CD0122D27D
S1131F80DC01CB0120E030E040E050E4BC01CD01B5
S1131F907ED1DC01CB0129813A814B815C81BC017A
S1131FA0CD01C4D2DC01CB019C01AD01C501B4015A
S1131FB006D1DC01CB019C01AD01C701B601FED005
S1131FC0DC01CB018D839E83AF83B8878FA198A555
S1131FD0CC01A0E0B0E0BC01CD01F2D1DC01CB0129
S1131FE020E030E040E858E4BC01CD0150D1DC01F0
S1131FF0CB016C017D018AA5082E000C990BAA0B5C
S1132000BB0BBC01CD01DED1DC01CB0120E030E013
S113201040E856E4BC01CD013AD1DC01CB01298171
S11320203A814B815C81BC01CD0180D2DC01CB01C2
S113203020E030E040E85FE3BC01CD01C0D0DC012A
S1132040CB014C015D018BA5082E000C990BAA0B4A
S1132050BB0BBC01CD01B6D1DC01CB0120E030E0EB
S113206040E859E4BC01CD0112D1DC01CB01298146
S11320703A814B815C81BC01CD0158D2DC01CB019A
S113208029813A814B815C81BC01CD014FD2DC01B5
S1132090CB019C01AD01C501B40191D0DC01CB01A0
S11320A09C01AD01C701B60141D2DC01CB012D81F8
S11320B03E814F815885BC01CD0138D2DC01CB0172
S11320C089879A87AB87BC878CA5082E000C990B4F
S11320D0AA0BBB0BBC01CD0175D1DC01CB0120E007
S11320E030E040E856E4BC01CD01D1D0DC01CB01A5
S11320F08D879E87AF87B88B8DA5082E000C990B12
S1132100AA0BBB0BBC01CD015DD1DC01CB0120E0EE
S113211030E040E05AE4BC01CD01B9D0DC01CB0190
S1132120898B9A8BAB8BBC8B29813A814B815C81E7
S113213069897A898B899C89F9D1DC01CB012D8548
S11321403E854F855889BC01CD0139D0DC01CB01D6
S113215029853A854B855C85BC01CD01E7D1DC013D
S1132160CB0129853A854B855C85BC01CD01DED147
S1132170DC01CB0129853A854B855C85BC01CD0109
S11321801ED0DC01CB018D8F9E8FAF8FB8A38D8DB8
S11321909E8DAF8DB8A1BC01CD01AE960FB6F8945B
S11321A0DEBF0FBECDBFDF91CF91FF90EF90DF90E8
S11321B0CF90BF90AF909F908F9008955058BB27B9
S11321C0AA270ED075C166D130F06BD120F031F45E
S11321D09F3F11F41EF45BC10EF4E095E7FB51C17F
S11321E0E92F77D180F3BA1762077307840795073D
S11321F018F071F49EF58FC10EF4E0950B2EBA2FF2
S1132200A02D0B01B90190010C01CA01A0011124F8
S1132210FF27591B99F0593F50F4503E68F11A16A4
S1132220F040A22F232F342F4427585FF3CF469535
S113223037952795A795F0405395C9F77EF41F1657
S1132240BA0B620B730B840BBAF09150A1F0FF0F21
S1132250BB1F661F771F881FC2F70EC0BA0F621F0D
S1132260731F841F48F4879577956795B795F795FD
S11322709E3F08F0B3CF9395880F08F09927EE0F8F
S1132280979587950895D9D008F481E008950CD0E6
S11322900FC107D140F0FED030F021F45F3F19F0B8
S11322A0F0C0511139C1F3C014D198F39923C9F383
S11322B05523B1F3951B550BBB27AA276217730748
S11322C0840738F09F5F5F4F220F331F441FAA1FFC
S11322D0A9F333D00E2E3AF0E0E830D091505040BC
S11322E0E695001CCAF729D0FE2F27D0660F771F6A
S11322F0881FBB1F261737074807AB07B0E809F04C
S1132300BB0B802DBF01FF2793585F4F2AF09E3FE0
S1132310510568F0B6C000C15F3FECF3983EDCF3B2
S1132320869577956795B795F7959F5FC9F7880F59
S1132330911D9695879597F90895E1E0660F771FAB
S1132340881FBB1F621773078407BA0720F0621B3C
S1132350730B840BBA0BEE1F88F7E095089504D035
S11323606894B111D9C00895BCD088F09F5790F0FB
S1132370B92F9927B751A0F0D1F0660F771F881FA6
S1132380991F1AF0BA95C9F712C0B13081F0C3D0C1
S1132390B1E00895C0C0672F782F8827B85F39F05F
S11323A0B93FCCF3869577956795B395D9F73EF405
S11323B090958095709561957F4F8F4F9F4F0895AD
S11323C0E89409C097FB3EF49095809570956195CB
S11323D07F4F8F4F9F4F9923A9F0F92F96E9BB2781
S11323E09395F695879577956795B795F111F8CFFD
S11323F0FAF4BB0F11F460FF1BC06F5F7F4F8F4F68
S11324009F4F16C0882311F096E911C0772321F05D
S11324109EE8872F762F05C0662371F096E8862FF5
S113242070E060E02AF09A95660F771F881FDAF74C
S1132430880F9695879597F90895990F0008550F79
S1132440AA0BE0E8FEEF16161706E807F907C0F036
S113245012161306E407F50798F0621B730B840B3E
S1132460950B39F40A2661F0232B242B252B21F418
S113247008950A2609F4A140A6958FEF811D811DB8
S1132480089597F99F6780E870E060E008959FEFF2
S113249080EC089500240A941616170618060906F7
S11324A0089500240A9412161306140605060895C6
S11324B0092E0394000C11F4882352F0BB0F40F44E
S11324C0BF2B11F460FF04C06F5F7F4F8F4F9F4F8E
S11324D0089557FD9058440F551F59F05F3F71F010
S11324E04795880F97FB991F61F09F3F79F0879577
S11324F00895121613061406551FF2CF4695F1DF00
S113250008C0161617061806991FF1CF869571058F
S1132510610508940895E894BB2766277727CB01C3
S113252097F908958ADF08F48FEF08950BD0C0CF90
S1132530B1DF28F0B6DF18F0952309F0A2CFA7CFBA
S11325401124EACFC6DFA0F3959FD1F3950F50E095
S1132550551F629FF001729FBB27F00DB11D639F51
S1132560AA27F00DB11DAA1F649F6627B00DA11DF7
S1132570661F829F2227B00DA11D621F739FB00D9D
S1132580A11D621F839FA00D611D221F749F33270D
S1132590A00D611D231F849F600D211D822F762FA6
S11325A06A2F11249F5750408AF0E1F088234AF0A3
S11325B0EE0FFF1FBB1F661F771F881F91505040EF
S11325C0A9F79E3F510570F05CCFA6CF5F3FECF3B7
S11325D0983EDCF3869577956795B795F795E795DB
S11325E09F5FC1F7FE2B880F911D9695879597F9EC
S11325F00895EE0FFF1F881F8BBF0790F691E02D03
S10926001994F894FFCFC9
S113260654454D505241545552453A205052455323
S1132616535552453A2048554D49444954593A2050
S9030000FC
